:02000000FC2FD3
:100C28000030831203138C1A01300800F000831679
:100C38000313981C1B2E70088312031399000800D5
:100C4800831203138C1E242E1A08F200F301720873
:100C5800F0007308F1000800FF30831603139200B8
:100C680083120313171697168C1030309004101443
:100C780008007108F5007008F40074080239F200E1
:100C8800F20EF20D8312031317087206DF3972068B
:100C9800970074080139F200F20E17087206EF394E
:100CA800720697007508F3007408F200730DF30CD0
:100CB800F20C730DF30CF20C72089500080000306A
:100CC80083120313A9000030A8000130A7002C30BC
:100CD800A6001C2730261426003A0319832E242642
:100CE800710883120313B7007008B6003708F100C3
:100CF8003608F0003D268312031336081A264130C1
:100D0800FC00EE30FB00FB0B872EFC0B872E00004F
:100D18006F2E83120313A101F31F9F2EF009F1090F
:100D2800F209F309F00A0319F10A0319F20A03197F
:100D3800F30AA101A10AF71FB02EF409F509F60973
:100D4800F709F40A0319F50A0319F60A0319F70A49
:100D58000130F8007808A1060030A5000030A40092
:100D68000030A3000030A2007308720471047004FC
:100D78000319052FA001A00AF31BD02E0130F8009B
:100D88000310F00DF10DF20DF30DF80BC42E013028
:100D9800F8007808A007C02E0130F8000310A20D53
:100DA800A30DA40DA50DF80BD22E73087702031D11
:100DB800E72E72087602031DE72E71087502031DDF
:100DC800E72E70087402031CF82E7008F4027108EC
:100DD800031C710FF5027208031C720FF6027308E8
:100DE800031C730FF702221401300310F30CF20CEA
:100DF800F10CF00CFF3E031DF92E0130A002031D7B
:100E0800D02E21080319132FA209A309A409A509A3
:100E1800A20A0319A30A0319A40A0319A50A250893
:100E2800F3002408F2002308F1002208F00008006B
:100E3800831203132608AA002708AB002808AC0071
:100E48002908AD0006300310AA0DAB0DAC0DAD0D91
:100E5800FF3E031D272F2D08F3002C08F2002B0856
:100E6800F1002A08F0000030AE000930AF003D3034
:100E7800B0000030B1002608B2002708B3002808E7
:100E8800B4002908B50006300310B20DB30DB40D37
:100E9800B50DFF3E031D482FB209B309B409B509C2
:100EA800B20A0319B30A0319B40A0319B50A3208B6
:100EB800AE0733080318330F622F632FAF073408C8
:100EC8000318340F682F692FB00735080318350A3F
:100ED800B1073108F7003008F6002F08F5002E0892
:100EE800F4008D267108FA007008F90001307A02C2
:100EF800003003197902031CE22F8312031326081A
:100F0800AA002708AB002808AC002908AD00043067
:100F18000310AA0DAB0DAC0DAD0DFF3E031D8C2FBC
:100F28002D08F3002C08F2002B08F1002A08F00025
:100F38000030AE000930AF003D30B0000030B100E5
:100F48002608B2002708B3002808B4002908B5000D
:100F580004300310B20DB30DB40DB50DFF3E031DE3
:100F6800AD2FB209B309B409B509B20A0319B30A16
:100F78000319B40A0319B50A3208AE07330803186F
:100F8800330FC72FC82FAF0734080318340FCD2FDE
:100F9800CE2FB00735080318350AB1073108F70016
:100FA8003008F6002F08F5002E08F4008D26710889
:100FB800FA007008F90083160313181501307A0235
:100FC80000300319790203180800790883160313FF
:100FD8009900181283120313981718138316031312
:100FE8001813831203131816831603139816080090
:080FF800B601B7018301632E6D
:02400E00F8FFB9
:00000001FF
